:020000020000FC
:0C0000000C94C8010C949E080C94A808F5
:04005C000C949B0065
:100074000C9493080C943E00189501BB1FD0169A5B
:100084001DD016981BD0089501BB179A17D0169A45
:1000940015D0169813D0179808950F93002700BB16
:1000A40001BB159A0BD0169A09D00FB1169807FD0B
:1000B400F9CF15980FEF00BB0F9108958F939F937D
:1000C4009FE08CE90197F1F79F918F910895F6DFF6
:1000D400F5DFF4DFF3DFF2DF08954F934FB74F936B
:1000E4005F930F93552744E6043620F0041B539581
:1000F4000C94750016D04AE00A3020F0041B539586
:100104000C947D000ED041E0041720F0041B53959D
:100114000C94850006D00F915F914F914FBF4F9182
:1001240008950F93052F005DAFDFB7DF0F915527BB
:1001340008954F934FB74F935F93DF93CF938F936C
:100144009F93AF93BF931124E11449F0A091060249
:10015400B09107021196A0930602B0930702542DA2
:100164005630C1F4A0910A02B0910B021196A83046
:1001740040E0B40759F440917A00406440937A0017
:10018400CAE0D2E044274993488304C0A0930A02FA
:10019400B0930B02A0910202B09103021196A03C0D
:1001A4004DE5B40749F48CD19AD1C6D1C2E0D2E06E
:1001B4004427499348834CC0A0930202B09303029E
:1001C400A0910002B0910102119644E0441619F086
:1001D40047E0441691F4A03E4EE2B40771F4C0E047
:1001E400D2E0442749934883442748B94EB947E0AD
:1001F400441671F540ED4EB92BC0A0930002B093A4
:100204000102A0910402B09105021196A03D47E0BD
:10021400B40741F40F9300E090160F91C9F05527ED
:100224005EB99A94A03A4FE0B40771F40F9300E0DA
:1002340090160F9169F050ED5EB9C4E0D2E0442706
:10024400499348830C942A01A0930402B0930502B5
:10025400BF91AF919F918F91CF91DF915F914F911A
:100264004FBF4F9118955F935FB75F934F9347E0EC
:10027400441609F475C03FEE1127143009F470C018
:1002840030930B014FEF4A95F1F7409109014F70FC
:100294004F3081F04F934FEF642E4F9111D121E0F5
:1002A4000027043039F0542F522341F00395220FD4
:1002B4000C945301330F13950C943F011330D1F078
:1002C400033039F4103071F1EE24113059F012304A
:1002D40061F0402F440F400F410F4F5F39D0742E0F
:1002E400C9D13EC05AE1752E3BC0662431D0D5D069
:1002F40005D236C0003039F0013049F0023059F0EF
:10030400033069F02DC054E1752E8BD229C055E11C
:10031400752EC8D225C056E1752E05D321C057E1EC
:10032400752E1EC048E0441689F01124E11429F406
:10033400C6E0D2E04427499348834F934FEFE42E1D
:100344004F91DFD042E0541609F002D0662408C071
:100354005F9352E3BCDE5A955130E4F75F91089500
:1003640043E0441629F44F915F915FBF5F9178C0D9
:1003740046E0441631F4ECDF4F915F915FBF5F912B
:1003840071C34F915F915FBF5F916AC051E25EBFDD
:100394005FEF5DBF50EF50930A0178D65FEF57B916
:1003A4005DB954B953BB5FEF54BB40EF40930A01AE
:1003B4000FEF00BB01B9002701BB02B94FEF47B9EA
:1003C40044274AB943E04DBB0F9308E356DE65DE8C
:1003D4000F917DDE0F9308E350DE5FDE0F916EDE3A
:1003E4000F9308E34ADE59DE0F910F9308E345DECD
:1003F40054DE0F910F9308E040DE4FDE0F910F9310
:1004040001E03BDE4ADE0F910F9306E036DE45DE67
:100414000F910F930EE031DE40DE0F914F9341E0D8
:10042400442E4F915524C2E0D2E044274993488397
:10043400C8E0D2E0442749934883EE2440E044BD19
:1004440042E045BD41E040936E00992440E440936E
:100454007C0048E040937B004FE840937A00789416
:10046400451419F44FEF6416B9F4542C442D41305B
:1004740009F465D5483009F46FD0423009F49BD4AF
:10048400443009F427D4433009F4C4D2453009F484
:10049400ACD2473009F4B0D3E6CE4F934FB74F9365
:1004A40046E0441661F44427A41629F44F9342E02D
:1004B400442E4F914DC04F9345E0442E4F9148C078
:1004C4004F934FB74F93442D4130C9F74F9342E0B8
:1004D400442E4F914F934427642E4F9139C04F932C
:1004E4004FB74F93442D443099F5442748B94EB93A
:1004F4004F9342E0442E4F914F934427642E4F91E3
:1005040027C04F934FB74F93AF93BF93452D4230BE
:10051400F9F4A0910602B0910702A0344CE9B407A3
:10052400BF91AF91A9F44F9348E0442E4F914F935C
:100534004427642E4F910CC04F934FB74F93442DD3
:10054400473031F44F9342E0442E4F9140E04EB98E
:100554004F914FBF4F9108954F934FB74F935F9370
:100564005FEF651611F041E0D42E0F9301E085DDB5
:1005740094DD0F910F9306E080DD8FDD0F910F93D3
:100584000EE07BDD8ADD0F910F9301E47DDD85DDD7
:100594000F910F9304E678DD80DD0F910F930DE644
:1005A40073DD7BDD0F910F9309E66EDD76DD0F9130
:1005B4000F930EE669DD71DD0F910F9300E264DDA8
:1005C4006CDD0F910F930DE65FDD67DD0F910F93E7
:1005D4000FE65ADD62DD0F910F9304E655DD5DDD14
:1005E4000F910F9305E650DD58DD0F910F9300E254
:1005F4004BDD53DD0F910D2D70DD0F9300EC3DDDD0
:100604004CDD0F915D2DAF93BF935F934F934FB725
:100614004F93ACE0B2E0513021F0515011960C945C
:100624000D0300270C914F914FBF4F915F91BF91E4
:10063400AF9153DD2AD05D2DAF93BF935F934F935A
:100644004FB74F93A5E1B2E0513021F051501196CC
:100654000C94260300270C914F914FBF4F915F914B
:10066400BF91AF913ADD88D166245F914F914FBF1E
:100674004F9108954F934FB74F9348E0541609F4A0
:10068400D72C4F914FBF4F9108954F934FB74F932E
:100694000F9300E2F9DC01DD0F910F9300E2F4DC2B
:1006A400FCDC0F910F9300E2EFDCF7DC0F910F936A
:1006B40000E2EADCF2DC0F910F9300E2E5DCEDDC12
:1006C4000F910F9300E2E0DCE8DC0F910F9300E25E
:1006D400DBDCE3DC0F910F9300E2D6DCDEDC0F9170
:1006E4000F9300E2D1DCD9DC0F910F9304E2CCDC50
:1006F400D4DC0F914F914FBF4F9108954F934FB753
:100704004F9348E0541639F44F9342E0442E4F91EE
:10071400552758B95EB94F914FBF4F9108954F93E4
:100724004FB74F930F931F9348E0541699F54F9387
:100734004FEF642E4F911D2DAF93BF931F934F9393
:100744004FB74F93ACE0B2E0113021F01150119645
:100754000C94A60300270C914F914FBF4F911F910A
:10076400BF91AF910030B1F00A95AF93BF931F933F
:100774004F934FB74F93ACE0B2E0113021F01150DA
:1007840011960C94BF030C934F914FBF4F911F913F
:10079400BF91AF911F910F914F914FBF4F9108950A
:1007A4004F934FB74F930F931F9348E0541699F507
:1007B4004F934FEF642E4F911D2DAF93BF931F9313
:1007C4004F934FB74F93ACE0B2E0113021F011508A
:1007D40011960C94E70300270C914F914FBF4F9152
:1007E4001F91BF91AF910F3FB1F00395AF93BF93AA
:1007F4001F934F934FB74F93ACE0B2E0113021F009
:10080400115011960C9400040C934F914FBF4F91CB
:100814001F91BF91AF911F910F914F914FBF4F9176
:1008240008954F934FB74F930F931F9348E0541677
:1008340099F54F934FEF642E4F911D2DAF93BF93B6
:100844001F934F934FB74F93A5E1B2E0113021F0BE
:10085400115011960C94280400270C914F914FBF0E
:100864004F911F91BF91AF910330B1F00395AF93B6
:10087400BF931F934F934FB74F93A5E1B2E011304D
:1008840021F0115011960C9441040C934F914FBFD9
:100894004F911F91BF91AF911F910F914F914FBFF6
:1008A4004F9108954F934FB74F930F931F9348E081
:1008B400541699F54F934FEF642E4F911D2DAF931E
:1008C400BF931F934F934FB74F93A5E1B2E01130FD
:1008D40021F0115011960C94690400270C914F914A
:1008E4004FBF4F911F91BF91AF910130B1F00A9565
:1008F400AF93BF931F934F934FB74F93A5E1B2E0CC
:10090400113021F0115011960C9482040C934F91E4
:100914004FBF4F911F91BF91AF911F910F914F9175
:100924004FBF4F9108954F934FB74F930F931F931A
:1009340048E05416D9F44F934FEF642E4F911D2D78
:100944000027AF93BF931F934F934FB74F93ACE0E0
:10095400B2E0113021F0115011960C94AB040C93B9
:100964004F914FBF4F911F91BF91AF911F910F9125
:100974004F914FBF4F9108954F934FB74F931F938C
:100984005F93112440E01D2DAF93BF931F934F93AA
:100994004FB74F93ACE0B2E0113021F011501196F3
:1009A4000C94CE0455275C914F914FBF4F911F91EA
:1009B400BF91AF915F93151621F0440F43955A955B
:1009C400FACF48B95F91593040F009F003C058E0BC
:1009D4000C94F00458E20C94F00455275EB95F912E
:1009E4001F914F914FBF4F9108954F934FB74F931E
:1009F4009A2CC4E0D2E044274993488350ED5EB971
:100A04004F9342E0442E4F91442748B94F914FBF32
:100A14004F910895572DAF93BF935F934F934FB763
:100A24004F93A5E1B2E0513021F0515011960C944E
:100A34001505BB24BC904F914FBF4F915F91BF915F
:100A4400AF91AA2439D04F9342E2842E4F91CAE049
:100A5400D2E04427499348834F9346E0442E4F9174
:100A640001D008950F930DEF601703E07007DCF4D5
:100A74000F9301E06017002770070F9108F0F3CB84
:100A840012E0811659F4A394A3D0AB1431F46ED0C0
:100A94004F9347E0442E4F91E3CC0ED04F9349E05F
:100AA400842E4F91E0CB19E0811621F44F9342E05C
:100AB400842E4F91D8CB08950F9301E0DEDAEDDA5E
:100AC4000F910F9306E0D9DAE8DA0F910F930EE055
:100AD400D4DAE3DA0F910F9309E4D6DADEDA0F9170
:100AE4000F930EE6D1DAD9DA0F910F9303E7CCDA3C
:100AF400D4DA0F910F9305E6C7DACFDA0F910F938B
:100B040002E7C2DACADA0F910F9304E7BDDAC5DA55
:100B14000F910F9300E2B8DAC0DA0F910F9303E458
:100B2400B3DABBDA0F910F930FE6AEDAB6DA0F91B0
:100B34000F9309E6A9DAB1DA0F910F930EE6A4DA5E
:100B4400ACDA0F910F9303E79FDAA7DA0F910F93B3
:100B540000EC93DAA2DA0F914F924F9343E0442EC4
:100B64004F910B2D0A19B9DA4F9008950F931F93E3
:100B7400172DAF93BF931F934F934FB74F93ACE091
:100B8400B2E0113021F0115011960C94C3050027E6
:100B94000C914F914FBF4F911F91BF91AF910A9507
:100BA400AF93BF931F934F934FB74F93ACE0B2E013
:100BB400113021F0115011960C94DA050C934F91D9
:100BC4004FBF4F911F91BF91AF911F910F91089506
:100BD4004F934FB74F93AF925F93112440E01A1491
:100BE40021F0440F4395AA94FACF48B95F91AF908E
:100BF4004F914FBF4F9108954F934FB74F930F931A
:100C040001E03BDA4ADA0F910F9306E036DA45DA6F
:100C14000F910F930EE031DA40DA0F910F9304E451
:100C240033DA3BDA0F910F9305E62EDA36DA0F91B9
:100C34000F930CE629DA31DA0F910F9309E624DADF
:100C44002CDA0F910F9306E71FDA27DA0F910F932F
:100C540005E61ADA22DA0F910F9302E715DA1DDAA4
:100C64000F910F9309E610DA18DA0F910F930EE63D
:100C74000BDA13DA0F910F9307E606DA0EDA0F9107
:100C84000F9300E201DA09DA0F910F9309E4FCD91A
:100C940004DA0F910F9304E7F7D9FFD90F910F935B
:100CA40005E6F2D9FAD90F910F930DE6EDD9F5D9EE
:100CB4000F914FEF48B94EB9C2E0D2E044274993AF
:100CC4004883C0E0D2E04427499348834F914FBF03
:100CD4004F9108955F935FB75F930F9301E0CDD970
:100CE400DCD90F910F9306E0C8D9D7D90F910F9390
:100CF4000EE0C3D9D2D90F910F930FE4C5D9CDD942
:100D04000F910F9305E7C0D9C8D90F910F9304E74A
:100D1400BBD9C3D90F910F9300E2B6D9BED90F91B5
:100D24000F9300E2B1D9B9D90F910F930FE4ACD965
:100D3400B4D90F910F9306E6A7D9AFD90F910F93AA
:100D440000E2A2D9AAD90F910F9303E59DD9A5D9A1
:100D54000F910F9304E798D9A0D90F910F930FE641
:100D640093D99BD90F910F9303E68ED996D90F91FE
:100D74000F930BE689D991D90F910F9300E284D98F
:100D84008CD90F910F9300EC78D987D90F91072D47
:100D9400A4D95FEF58B95FE25EB9C2E0D2E044275C
:100DA40049934883C0E0D2E04427499348835F9144
:100DB4005FBF5F9108954F934FB74F935F930F9326
:100DC40001E05BD96AD90F910F9306E056D965D932
:100DD4000F910F930EE051D960D90F910F9303E552
:100DE40053D95BD90F910F9305E64ED956D90F917C
:100DF4000F930CE649D951D90F910F9305E644D9C5
:100E04004CD90F910F9303E63FD947D90F910F9314
:100E140004E73AD942D90F910F9300E235D93DD96D
:100E24000F910F9309E630D938D90F910F9304E746
:100E34002BD933D90F910F9305E626D92ED90F91CB
:100E44000F930DE621D929D90F910F9300E21CD9F4
:100E540024D90F910F9300E217D91FD90F910F9343
:100E640000E212D91AD90F91562D5F3F31F566244D
:100E7400072D0A3014F5AF93BF930F934F934FB7D9
:100E84004F93ACE0B2E0013021F0015011960C9484
:100E9400450711271C914F914FBF4F910F91BF915F
:100EA400AF91103031F04F9343E0442E4F910C94A6
:100EB4005F074F9344E0442E4F915F914F914FBF92
:100EC4004F91089545DA44DA43DA42DA41DA40DAF6
:100ED4003FDA3EDA3DDA3CDA3BDA3ADA39DA38DA62
:100EE40037DA36DA35DA34DA33DA32DA31DA30DA92
:100EF4002FDA2EDA2DDA2CDA2BDA2ADA29DA28DAC2
:100F040027DA26DA25DA24DA23DA22DA21DA20DAF1
:100F14001FDA1EDA1DDA1CDA1BDA1ADA19DA18DA21
:100F240017DA16DA15DA14DA13DA12DA11DA10DA51
:100F34000FDA0EDA0DDA0CDA0BDA0ADA08954F93C7
:100F44004FB74F930F9302E39FD8A7D80F910F93F6
:100F540001E39AD8A2D80F910F9302E395D89DD8B4
:100F64000F910F9301E390D898D80F910F9300E25B
:100F74008BD893D80F910F9300E286D88ED80F9117
:100F84000F9301E381D889D80F910F9307E37CD89D
:100F940084D80F910F9303E777D87FD80F910F93DD
:100FA40001E372D87AD80F910F9300E26DD875D807
:100FB4000F910F9300E268D870D80F910F9300E25D
:100FC40063D86BD80F910F9302E45ED866D80F9163
:100FD4000F9302E359D861D80F910F9300EC4DD8C9
:100FE4005CD80F910F9306E54FD857D80F910F9304
:100FF40005E64AD852D80F910F930EE645D84DD83E
:101004000F910F9304E640D848D80F910F9309E647
:101014003BD843D80F910F930EE636D83ED80F91A4
:101024000F9307E631D839D80F910F9300E22CD8EB
:1010340034D80F910F930DE427D82FD80F910F9325
:1010440001E622D82AD80F910F9303E61DD825D89C
:101054000F910F9308E618D820D80F910F9309E643
:1010640013D81BD80F910F930EE60ED816D80F91F4
:101074000F9305E609D811D80F910F9300E204D815
:101084000CD80F914F914FBF4F9108954F934FB785
:101094004F935F9351E05A3071F1052FAF93BF9393
:1010A4005F934F934FB74F93ACE0B2E0513021F0D0
:1010B400515011960C9458080C934F914FBF4F9177
:1010C4005F91BF91AF911CD0AF93BF935F934F9348
:1010D4004FB74F93A5E1B2E0513021F05150119632
:1010E4000C946E080C934F914FBF4F915F91BF9139
:1010F400AF915395D0CF5F914F914FBF4F910895CA
:101104005F934F934FB74F935170503011F051305C
:1011140011F002E001C001E04F914FBF4F915F9188
:1011240008954F934FB74F93609178007091790071
:101134004F914FBF4F9118954F934FB74F93CFD9BE
:101144002FDB06D94F914FBF4F9118954F934FB74F
:101154004F93C5D9E4DAFCD84F914FBF4F911895FE
:00000001FF
