:020000020000FC
:0C0000000C94BA010C9435080C943F08D5
:04005C000C9493006D
:100074000C942A080C943E00189501BB1FD0169AC4
:100084001DD016981BD0089501BB179A17D0169A45
:1000940015D0169813D0179808950F93002700BB16
:1000A40001BB159A0BD0169A09D00FB1169807FD0B
:1000B400F9CF15980FEF00BB0F9108958F939F937D
:1000C4009FE08CE90197F1F79F918F910895F6DFF6
:1000D400F5DFF4DFF3DFF2DF08954F934FB74F936B
:1000E4005F930F9355274AE00A3020F0041B539581
:1000F4000C9475000ED041E0041720F0041B5395B6
:100104000C947D0006D00F915F914F914FBF4F919A
:1001140008950F93052F005DB7DFBFDF0F915527BB
:1001240008954F934FB74F935F93DF93CF938F937C
:100134009F93AF93BF93542D5630C1F4A0910802FE
:10014400B09109021196A03941E0B40759F44091E5
:100154007A00406440937A00C8E0D2E0442749938F
:10016400488304C0A0930802B09309025FEFC51648
:10017400A1F4A0910602B09107021196A0344CE9B3
:10018400B40739F4CC24C6E0D2E044274993488329
:1001940004C0A0930602B0930702A0910202B0919A
:1001A40003021196A03C4DE5B40749F471D17FD107
:1001B4009FD1C2E0D2E04427499348834EC0A09324
:1001C4000202B0930302A0910002B09101021196C1
:1001D40044E0441619F047E0441691F4A03E4EE280
:1001E400B40771F4C0E0D2E044274993488344271C
:1001F40048B94EB947E0441681F540ED4EB92DC0DB
:10020400A0930002B0930102A0910402B0910502F0
:100214001196A03D47E0B40751F40F9300E0901607
:100224000F91D9F055275EB99A9455275EB9A03A33
:100234004FE0B40771F40F9300E090160F9169F04A
:1002440050ED5EB9C4E0D2E04427499348830C944E
:100254002F01A0930402B0930502BF91AF919F9127
:100264008F91CF91DF915F914F914FBF4F9118952F
:100274005F935FB75F934F9347E0441609F462C0FE
:100284003FEE1127143009F45DC030930B014FEF9A
:100294004A95F1F7409109014F704F3081F04F9327
:1002A4004FEF642E4F91F4D021E00027043039F051
:1002B400542F522341F00395220F0C945801330F0D
:1002C40013950C9444011330C9F0033031F4103009
:1002D40069F1113059F0123061F0402F440F400F92
:1002E400410F4F5F27D0742EA0D12CC05AE1752E38
:1002F40029C066241FD0B9D0E6D124C0003039F01B
:10030400013049F0023059F0033069F01BC054E168
:10031400752E69D217C055E1752EA6D213C056E1C9
:10032400752EE3D20FC057E1752E0CC0662402D09F
:10033400D0D008C05F9352E3CADE5A955130E4F737
:100344005F91089543E0441629F44F915F915FBF94
:100354005F916EC046E0441631F4ECDF4F915F913B
:100364005FBF5F9121C34F915F915FBF5F9160C099
:1003740051E25EBF5FEF5DBF50EF50930A011DD69F
:100384005FEF57B95DB940EF40930A010FEF00BB2F
:1003940001B9002701BB02B94FEF47B944274AB955
:1003A40043E04DBB0F9308E368DE77DE0F918FDEE9
:1003B4000F9308E362DE71DE0F9180DE0F9308E392
:1003C4005CDE6BDE0F910F9308E357DE66DE0F9160
:1003D4000F9308E052DE61DE0F910F9301E04DDED2
:1003E4005CDE0F910F9306E048DE57DE0F910F930A
:1003F4000EE043DE52DE0F914F9341E0442E4F91C5
:100404005524C2E0D2E044274993488340E044BDE8
:1004140042E045BD41E040936E00992440E440939E
:100424007C0048E040937B004FE840937A00789446
:10043400451419F44FEF6416B9F4542C442D41308B
:1004440009F41FD5483009F463D0423009F455D477
:10045400443009F4E5D3433009F485D2453009F436
:100464006DD2473009F46ED303CF4F934FB74F93F8
:1004740046E0441661F44427A41629F44F9342E05D
:10048400442E4F9141C04F9345E0442E4F913CC0C0
:100494004F934FB74F93442D4130B1F54F9342E002
:1004A400442E4F914F934427642E4F912DC04F9368
:1004B4004FB74F93442D443039F5442748B94EB9CA
:1004C4004F9342E0442E4F914F934427642E4F9113
:1004D4001BC04F934FB74F93452D4230A9F44F9310
:1004E40048E0442E4F914F934427642E4F910CC003
:1004F4004F934FB74F93442D473031F44F9342E01D
:10050400442E4F9140E04EB94F914FBF4F91089503
:100514004F934FB74F935F935FEF651611F041E030
:10052400D42E0F9301E0A9DDB8DD0F910F9306E0FF
:10053400A4DDB3DD0F910F930EE09FDDAEDD0F91CF
:100544000F9301E4A1DDA9DD0F910F9304E69CDD77
:10055400A4DD0F910F930DE697DD9FDD0F910F93AF
:1005640009E692DD9ADD0F910F930EE68DDD95DDA0
:100574000F910F9300E288DD90DD0F910F930DE64C
:1005840083DD8BDD0F910F930FE67EDD86DD0F910A
:100594000F9304E679DD81DD0F910F9305E674DD99
:1005A4007CDD0F910F9300E26FDD77DD0F910D2D50
:1005B40094DD0F9300EC61DD70DD0F915D2DAF9341
:1005C400BF935F934F934FB74F93AAE0B2E051307C
:1005D40021F0515011960C94E90200270C914F918F
:1005E4004FBF4F915F91BF91AF9177DD29D05D2DC2
:1005F400AF93BF935F934F934FB74F93A3E1B2E091
:10060400513021F0515011960C94020300270C91A3
:100614004F914FBF4F915F91BF91AF915EDD6624C3
:100624005F914F914FBF4F9108954F934FB74F93A1
:1006340048E0541609F4D72C4F914FBF4F910895B9
:100644004F934FB74F930F9300E21EDD26DD0F91BA
:100654000F9300E219DD21DD0F910F9300E214DD09
:100664001CDD0F910F9300E20FDD17DD0F910F9347
:1006740000E20ADD12DD0F910F9300E205DD0DDDCE
:100684000F910F9300E200DD08DD0F910F9300E25C
:10069400FBDC03DD0F910F9300E2F6DCFEDC0F912F
:1006A4000F9300E2F1DCF9DC0F910F9300E2ECDC34
:1006B400F4DC0F910F9304E2E7DCEFDC0F914F9130
:1006C4004FBF4F9108954F934FB74F9348E054163F
:1006D40021F44F9342E0442E4F914F914FBF4F91DD
:1006E40008954F934FB74F930F931F9348E05416B9
:1006F40099F54F934FEF642E4F911D2DAF93BF93F8
:100704001F934F934FB74F93AAE0B2E0113021F0FB
:10071400115011960C94880300270C914F914FBFF0
:100724004F911F91BF91AF910030B1F00A95AF93F3
:10073400BF931F934F934FB74F93AAE0B2E011308A
:1007440021F0115011960C94A1030C934F914FBFBB
:100754004F911F91BF91AF911F910F914F914FBF37
:100764004F9108954F934FB74F930F931F9348E0C2
:10077400541699F54F934FEF642E4F911D2DAF935F
:10078400BF931F934F934FB74F93AAE0B2E011303A
:1007940021F0115011960C94C90300270C914F912C
:1007A4004FBF4F911F91BF91AF910A30B1F00395A4
:1007B400AF93BF931F934F934FB74F93AAE0B2E009
:1007C400113021F0115011960C94E2030C934F91C7
:1007D4004FBF4F911F91BF91AF911F910F914F91B7
:1007E4004FBF4F9108954F934FB74F930F931F935C
:1007F40048E0541699F54F934FEF642E4F911D2DF9
:10080400AF93BF931F934F934FB74F93A3E1B2E0BE
:10081400113021F0115011960C940A0400270C9108
:100824004F914FBF4F911F91BF91AF910330B1F0E2
:100834000395AF93BF931F934F934FB74F93A3E188
:10084400B2E0113021F0115011960C9423040C9352
:100854004F914FBF4F911F91BF91AF911F910F9136
:100864004F914FBF4F9108954F934FB74F930F93AD
:100874001F9348E0541699F54F934FEF642E4F9110
:100884001D2DAF93BF931F934F934FB74F93A3E186
:10089400B2E0113021F0115011960C944B04002752
:1008A4000C914F914FBF4F911F91BF91AF91013068
:1008B400B1F00A95AF93BF931F934F934FB74F93E4
:1008C400A3E1B2E0113021F0115011960C946404AC
:1008D4000C934F914FBF4F911F91BF91AF911F91B7
:1008E4000F914F914FBF4F9108954F934FB74F932F
:1008F4000F931F9348E05416D9F44F934FEF642E8F
:100904004F911D2D0027AF93BF931F934F934FB764
:100914004F93AAE0B2E0113021F0115011960C94DB
:100924008D040C934F914FBF4F911F91BF91AF9185
:100934001F910F914F914FBF4F9108954F934FB710
:100944004F939A2CC4E0D2E044274993488350ED56
:100954005EB94F9342E0442E4F91442748B94F91DA
:100964004FBF4F910895572DAF93BF935F934F930C
:100974004FB74F93A3E1B2E0513021F0515011969B
:100984000C94BE04BB24BC904F914FBF4F915F9118
:10099400BF91AF91AA2436D08824C8E0D2E044277E
:1009A4004993488301D008954F9346E0442E4F91D4
:1009B4000F930DEF601703E07007DCF40F9301E071
:1009C4006017002770070F9108F052CC12E08116CF
:1009D40059F4A394A3D0AB1431F46ED04F9347E0F1
:1009E400442E4F9125CD0ED04F9349E0842E4F9144
:1009F4003FCC19E0811621F44F9342E0842E4F91AD
:100A040037CC08950F9301E038DB47DB0F910F9348
:100A140006E033DB42DB0F910F930EE02EDB3DDB70
:100A24000F910F9309E430DB38DB0F910F930EE63F
:100A34002BDB33DB0F910F9303E726DB2EDB0F91C8
:100A44000F9305E621DB29DB0F910F9302E71CDBF3
:100A540024DB0F910F9304E717DB1FDB0F910F9338
:100A640000E212DB1ADB0F910F9303E40DDB15DBBD
:100A74000F910F930FE608DB10DB0F910F9309E63C
:100A840003DB0BDB0F910F930EE6FEDA06DB0F910F
:100A94000F9303E7F9DA01DB0F910F9300ECEDDA22
:100AA400FCDA0F914F924F9343E0442E4F910B2D5C
:100AB4000A1913DB4F9008950F931F93172DAF93CB
:100AC400BF931F934F934FB74F93AAE0B2E01130F7
:100AD40021F0115011960C94690500270C914F9147
:100AE4004FBF4F911F91BF91AF910A95AF93BF93A1
:100AF4001F934F934FB74F93AAE0B2E0113021F008
:100B0400115011960C9480050C934F914FBF4F9147
:100B14001F91BF91AF911F910F9108954F934FB7BC
:100B24004F93AF925F93112440E01A1421F0440FC5
:100B34004395AA94FACF48B95F91AF904F914FBFB4
:100B44004F9108954F934FB74F930F9301E095DA68
:100B5400A4DA0F910F9306E090DA9FDA0F910F93C6
:100B64000EE08BDA9ADA0F910F9304E48DDA95DABA
:100B74000F910F9305E688DA90DA0F910F930CE644
:100B840083DA8BDA0F910F9309E67EDA86DA0F9116
:100B94000F9306E779DA81DA0F910F9305E674DA99
:100BA4007CDA0F910F9302E76FDA77DA0F910F93E4
:100BB40009E66ADA72DA0F910F930EE665DA6DDAF6
:100BC4000F910F9307E660DA68DA0F910F9300E252
:100BD4005BDA63DA0F910F9309E456DA5EDA0F9168
:100BE4000F9304E751DA59DA0F910F9305E64CDAC3
:100BF40054DA0F910F930DE647DA4FDA0F914FEF66
:100C040048B94EB9C2E0D2E0442749934883C0E0D2
:100C1400D2E04427499348834F914FBF4F910895A1
:100C24005F930F9301E029DA38DA0F910F9306E00E
:100C340024DA33DA0F910F930EE01FDA2EDA0F91D4
:100C44000F930FE421DA29DA0F910F9305E71CDAE9
:100C540024DA0F910F9304E717DA1FDA0F910F9339
:100C640000E212DA1ADA0F910F9300E20DDA15DAC4
:100C74000F910F930FE408DA10DA0F910F9306E641
:100C840003DA0BDA0F910F9300E2FED906DA0F9123
:100C94000F9303E5F9D901DA0F910F9304E7F4D91F
:100CA400FCD90F910F930FE6EFD9F7D90F910F935A
:100CB40003E6EAD9F2D90F910F930BE6E5D9EDD902
:100CC4000F910F9300E2E0D9E8D90F910F9300EC54
:100CD400D4D9E3D90F91072D00DA5FEF58B95FE259
:100CE4005EB9C2E0D2E0442749934883C0E0D2E031
:100CF4004427499348835F9108954F934FB74F9387
:100D04005F930F9301E0B9D9C8D90F910F9306E00F
:100D1400B4D9C3D90F910F930EE0AFD9BED90F91B7
:100D24000F9303E5B1D9B9D90F910F9305E6ACD967
:100D3400B4D90F910F930CE6A7D9AFD90F910F93A4
:100D440005E6A2D9AAD90F910F9303E69DD9A5D997
:100D54000F910F9304E798D9A0D90F910F9300E254
:100D640093D99BD90F910F9309E68ED996D90F91F8
:100D74000F9304E789D991D90F910F9305E684D98C
:100D84008CD90F910F930DE67FD987D90F910F93CB
:100D940000E27AD982D90F910F9300E275D97DD9F7
:100DA4000F910F9300E270D978D90F91562D5F3FC0
:100DB40031F56624072D0A3014F5AF93BF930F93D2
:100DC4004F934FB74F93AAE0B2E0013021F00150A6
:100DD40011960C94E70611271C914F914FBF4F9128
:100DE4000F91BF91AF91103031F04F9343E0442EF7
:100DF4004F910C9401074F9344E0442E4F915F911F
:100E04004F914FBF4F91089595DA94DA93DA92DABD
:100E140091DA90DA8FDA8EDA8DDA8CDA8BDA8ADA92
:100E240089DA88DA87DA86DA85DA84DA83DA82DAC2
:100E340081DA80DA7FDA7EDA7DDA7CDA7BDA7ADAF2
:100E440079DA78DA77DA76DA75DA74DA73DA72DA22
:100E540071DA70DA6FDA6EDA6DDA6CDA6BDA6ADA52
:100E640069DA68DA67DA66DA65DA64DA63DA62DA82
:100E740061DA60DA5FDA5EDA5DDA5CDA5BDA5ADAB2
:100E840008950F9302E300D908D90F910F9301E35A
:100E9400FBD803D90F910F9302E3F6D8FED80F9134
:100EA4000F9301E3F1D8F9D80F910F9300E2ECD836
:100EB400F4D80F910F9301E3E7D8EFD80F910F9374
:100EC40007E3E2D8EAD80F910F9303E7DDD8E5D81A
:100ED4000F910F9301E3D8D8E0D80F910F9300E25C
:100EE400D3D8DBD80F910F9300E2CED8D6D80F9188
:100EF4000F9300E2C9D8D1D80F910F9302E4C4D85C
:100F0400CCD80F910F9302E3BFD8C7D80F910F939A
:100F140000ECB3D8C2D80F910F9306E5B5D8BDD86D
:100F24000F910F9305E6B0D8B8D80F910F930EE642
:100F3400ABD8B3D80F910F9304E6A6D8AED80F91CF
:100F44000F9309E6A1D8A9D80F910F930EE69CD868
:100F5400A4D80F910F9307E697D89FD80F910F93BA
:100F640000E292D89AD80F910F930DE48DD895D8BA
:100F74000F910F9301E688D890D80F910F9303E651
:100F840083D88BD80F910F9308E67ED886D80F911B
:100F94000F9309E679D881D80F910F930EE674D890
:100FA4007CD80F910F9305E66FD877D80F910F93E4
:100FB40000E26AD872D80F9108954F934FB74F93B8
:100FC4005F9351E05A3071F1052FAF93BF935F9354
:100FD4004F934FB74F93AAE0B2E0513021F05150F4
:100FE40011960C94EF070C934F914FBF4F915F9163
:100FF400BF91AF911CD0AF93BF935F934F934FB703
:101004004F93A3E1B2E0513021F0515011960C946A
:1010140005080C934F914FBF4F915F91BF91AF91D2
:101024005395D0CF5F914F914FBF4F9108955F93E8
:101034004F934FB74F935170503011F0513011F01E
:1010440002E001C001E04F914FBF4F915F910895BD
:101054004F934FB74F9360917800709179004F91FF
:101064004FBF4F9118954F934FB74F9320DA7ADBC8
:1010740061D94F914FBF4F9118954F934FB74F93ED
:0E10840016DA2FDB57D94F914FBF4F911895B9
:00000001FF
